{
  "_format": "hh-sol-artifact-1",
  "contractName": "HashedTimelockERC20",
  "sourceName": "contracts/HashedTimelockERC20.sol",
  "abi": [
    {
      "anonymous": false,
      "inputs": [
        {
          "indexed": true,
          "internalType": "address",
          "name": "sender",
          "type": "address"
        },
        {
          "indexed": true,
          "internalType": "address",
          "name": "receiver",
          "type": "address"
        },
        {
          "indexed": false,
          "internalType": "address",
          "name": "tokenContract",
          "type": "address"
        },
        {
          "indexed": false,
          "internalType": "uint256",
          "name": "amount",
          "type": "uint256"
        },
        {
          "indexed": false,
          "internalType": "bytes32",
          "name": "hashlock",
          "type": "bytes32"
        },
        {
          "indexed": false,
          "internalType": "uint256",
          "name": "timelock",
          "type": "uint256"
        }
      ],
      "name": "HTLCERC20New",
      "type": "event"
    },
    {
      "anonymous": false,
      "inputs": [
        {
          "indexed": true,
          "internalType": "bytes32",
          "name": "hashlock",
          "type": "bytes32"
        }
      ],
      "name": "HTLCERC20Refund",
      "type": "event"
    },
    {
      "anonymous": false,
      "inputs": [
        {
          "indexed": true,
          "internalType": "bytes32",
          "name": "hashlock",
          "type": "bytes32"
        }
      ],
      "name": "HTLCERC20Withdraw",
      "type": "event"
    },
    {
      "inputs": [
        {
          "internalType": "bytes32",
          "name": "",
          "type": "bytes32"
        }
      ],
      "name": "contracts",
      "outputs": [
        {
          "internalType": "address",
          "name": "sender",
          "type": "address"
        },
        {
          "internalType": "address",
          "name": "receiver",
          "type": "address"
        },
        {
          "internalType": "address",
          "name": "tokenContract",
          "type": "address"
        },
        {
          "internalType": "uint256",
          "name": "amount",
          "type": "uint256"
        },
        {
          "internalType": "uint256",
          "name": "timelock",
          "type": "uint256"
        },
        {
          "internalType": "bool",
          "name": "withdrawn",
          "type": "bool"
        },
        {
          "internalType": "bool",
          "name": "refunded",
          "type": "bool"
        },
        {
          "internalType": "bytes32",
          "name": "preimage",
          "type": "bytes32"
        }
      ],
      "stateMutability": "view",
      "type": "function"
    },
    {
      "inputs": [
        {
          "internalType": "bytes32",
          "name": "_hashlock",
          "type": "bytes32"
        }
      ],
      "name": "getContract",
      "outputs": [
        {
          "internalType": "bytes32",
          "name": "hashlock",
          "type": "bytes32"
        },
        {
          "internalType": "address",
          "name": "sender",
          "type": "address"
        },
        {
          "internalType": "address",
          "name": "receiver",
          "type": "address"
        },
        {
          "internalType": "address",
          "name": "tokenContract",
          "type": "address"
        },
        {
          "internalType": "uint256",
          "name": "amount",
          "type": "uint256"
        },
        {
          "internalType": "uint256",
          "name": "timelock",
          "type": "uint256"
        },
        {
          "internalType": "bool",
          "name": "withdrawn",
          "type": "bool"
        },
        {
          "internalType": "bool",
          "name": "refunded",
          "type": "bool"
        },
        {
          "internalType": "bytes32",
          "name": "preimage",
          "type": "bytes32"
        }
      ],
      "stateMutability": "view",
      "type": "function"
    },
    {
      "inputs": [
        {
          "internalType": "address",
          "name": "_receiver",
          "type": "address"
        },
        {
          "internalType": "bytes32",
          "name": "_hashlock",
          "type": "bytes32"
        },
        {
          "internalType": "uint256",
          "name": "_timelock",
          "type": "uint256"
        },
        {
          "internalType": "address",
          "name": "_tokenContract",
          "type": "address"
        },
        {
          "internalType": "uint256",
          "name": "_amount",
          "type": "uint256"
        }
      ],
      "name": "newContract",
      "outputs": [
        {
          "internalType": "bytes32",
          "name": "hashlock",
          "type": "bytes32"
        }
      ],
      "stateMutability": "nonpayable",
      "type": "function"
    },
    {
      "inputs": [
        {
          "internalType": "bytes32",
          "name": "_hashlock",
          "type": "bytes32"
        }
      ],
      "name": "refund",
      "outputs": [
        {
          "internalType": "bool",
          "name": "",
          "type": "bool"
        }
      ],
      "stateMutability": "nonpayable",
      "type": "function"
    },
    {
      "inputs": [
        {
          "internalType": "bytes32",
          "name": "_hashlock",
          "type": "bytes32"
        },
        {
          "internalType": "bytes32",
          "name": "_preimage",
          "type": "bytes32"
        }
      ],
      "name": "withdraw",
      "outputs": [
        {
          "internalType": "bool",
          "name": "",
          "type": "bool"
        }
      ],
      "stateMutability": "nonpayable",
      "type": "function"
    }
  ],
  "bytecode": "0x608060405234801561001057600080fd5b50610dd4806100206000396000f3fe608060405234801561001057600080fd5b50600436106100575760003560e01c8063398a7a981461005c57806363615149146100b05780637249fbb6146100e7578063e16c7d9814610104578063ec56a37314610179575b600080fd5b61009e600480360360a081101561007257600080fd5b506001600160a01b038135811691602081013591604082013591606081013590911690608001356101ea565b60408051918252519081900360200190f35b6100d3600480360360408110156100c657600080fd5b5080359060200135610625565b604080519115158252519081900360200190f35b6100d3600480360360208110156100fd57600080fd5b503561093a565b6101216004803603602081101561011a57600080fd5b5035610bf8565b60408051998a526001600160a01b0398891660208b015296881689880152949096166060880152608087019290925260a0860152151560c085015291151560e084015261010083019190915251908190036101200190f35b6101966004803603602081101561018f57600080fd5b5035610ca0565b604080516001600160a01b03998a1681529789166020890152959097168686015260608601939093526080850191909152151560a0840152151560c083015260e08201929092529051908190036101000190f35b600082338360008111610244576040805162461bcd60e51b815260206004820152601860248201527f746f6b656e20616d6f756e74206d757374206265203e20300000000000000000604482015290519081900360640190fd5b60408051636eb1769f60e11b81526001600160a01b0384811660048301523060248301529151839286169163dd62ed3e916044808301926020929190829003018186803b15801561029457600080fd5b505afa1580156102a8573d6000803e3d6000fd5b505050506040513d60208110156102be57600080fd5b505110156102fd5760405162461bcd60e51b8152600401808060200182810382526021815260200180610d5c6021913960400191505060405180910390fd5b8642811161033c5760405162461bcd60e51b8152600401808060200182810382526023815260200180610d166023913960400191505060405180910390fd5b61034589610cf8565b15610397576040805162461bcd60e51b815260206004820152601760248201527f436f6e747261637420616c726561647920657869737473000000000000000000604482015290519081900360640190fd5b604080516323b872dd60e01b81523360048201523060248201526044810188905290516001600160a01b038916916323b872dd9160648083019260209291908290030181600087803b1580156103ec57600080fd5b505af1158015610400573d6000803e3d6000fd5b505050506040513d602081101561041657600080fd5b50516104535760405162461bcd60e51b8152600401808060200182810382526022815260200180610d7d6022913960400191505060405180910390fd5b604051806101000160405280336001600160a01b031681526020018b6001600160a01b03168152602001886001600160a01b031681526020018781526020018981526020016000151581526020016000151581526020016000801b8152506000808b815260200190815260200160002060008201518160000160006101000a8154816001600160a01b0302191690836001600160a01b0316021790555060208201518160010160006101000a8154816001600160a01b0302191690836001600160a01b0316021790555060408201518160020160006101000a8154816001600160a01b0302191690836001600160a01b03160217905550606082015181600301556080820151816004015560a08201518160050160006101000a81548160ff02191690831515021790555060c08201518160050160016101000a81548160ff02191690831515021790555060e08201518160060155905050896001600160a01b0316336001600160a01b03167fd470958a7e49aebd25ffe012d33ec6e82c24a4b17bed17cee7c4ecfe7015f0fb89898d8d60405180856001600160a01b0316815260200184815260200183815260200182815260200194505050505060405180910390a3509698975050505050505050565b60008261063181610cf8565b61067c576040805162461bcd60e51b815260206004820152601760248201527618dbdb9d1c9858dd08191bd95cc81b9bdd08195e1a5cdd604a1b604482015290519081900360640190fd5b8383600281604051602001808281526020019150506040516020818303038152906040526040518082805190602001908083835b602083106106cf5780518252601f1990920191602091820191016106b0565b51815160209384036101000a60001901801990921691161790526040519190930194509192505080830381855afa15801561070e573d6000803e3d6000fd5b5050506040513d602081101561072357600080fd5b50518214610778576040805162461bcd60e51b815260206004820152601c60248201527f686173686c6f636b206861736820646f6573206e6f74206d6174636800000000604482015290519081900360640190fd5b60008681526020819052604090206001015486906001600160a01b031633146107e8576040805162461bcd60e51b815260206004820152601a60248201527f776974686472617761626c653a206e6f74207265636569766572000000000000604482015290519081900360640190fd5b60008181526020819052604090206005015460ff161561084f576040805162461bcd60e51b815260206004820152601f60248201527f776974686472617761626c653a20616c72656164792077697468647261776e00604482015290519081900360640190fd5b600087815260208181526040808320600681018a905560058101805460ff191660019081179091556002820154908201546003830154845163a9059cbb60e01b81526001600160a01b03928316600482015260248101919091529351929591169363a9059cbb936044808201949293918390030190829087803b1580156108d557600080fd5b505af11580156108e9573d6000803e3d6000fd5b505050506040513d60208110156108ff57600080fd5b505060405188907f15a71365fee30a355046c80d10aab98a49c3558b2272658d6c551733203e9bbe90600090a2506001979650505050505050565b60008161094681610cf8565b610991576040805162461bcd60e51b815260206004820152601760248201527618dbdb9d1c9858dd08191bd95cc81b9bdd08195e1a5cdd604a1b604482015290519081900360640190fd5b60008381526020819052604090205483906001600160a01b031633146109f7576040805162461bcd60e51b81526020600482015260166024820152753932b33ab73230b136329d103737ba1039b2b73232b960511b604482015290519081900360640190fd5b600081815260208190526040902060050154610100900460ff1615610a63576040805162461bcd60e51b815260206004820152601c60248201527f726566756e6461626c653a20616c726561647920726566756e64656400000000604482015290519081900360640190fd5b60008181526020819052604090206005015460ff1615610aca576040805162461bcd60e51b815260206004820152601d60248201527f726566756e6461626c653a20616c72656164792077697468647261776e000000604482015290519081900360640190fd5b600081815260208190526040902060040154421015610b1a5760405162461bcd60e51b8152600401808060200182810382526023815260200180610d396023913960400191505060405180910390fd5b60008481526020818152604080832060058101805461ff001916610100179055600281015481546003830154845163a9059cbb60e01b81526001600160a01b03928316600482015260248101919091529351929591169363a9059cbb936044808201949293918390030190829087803b158015610b9657600080fd5b505af1158015610baa573d6000803e3d6000fd5b505050506040513d6020811015610bc057600080fd5b505060405185907ff97bb6718c3bf29e51d27c00a46276abc2cf35c7f1d5a1c71bec2c82421bb83090600090a2506001949350505050565b6000806000806000806000806000610c0f8a610cf8565b610c3357506000975087965086955085945084935083925082915081905080610c93565b50505060008781526020819052604090208054600182015460028301546003840154600485015460058601546006909601548d9c506001600160a01b039586169b509385169950939091169650945090925060ff80831692610100900416905b9193959799909294969850565b60006020819052908152604090208054600182015460028301546003840154600485015460058601546006909601546001600160a01b039586169694861695909316939192909160ff80821692610100909204169088565b6000908152602081905260409020546001600160a01b031615159056fe74696d656c6f636b2074696d65206d75737420626520696e2074686520667574757265726566756e6461626c653a2074696d656c6f636b206e6f742079657420706173736564746f6b656e20616c6c6f77616e6365206d757374206265203e3d20616d6f756e747472616e7366657246726f6d2073656e64657220746f2074686973206661696c6564a2646970667358221220f09ec7f9dee238b2ea58babb61a65f879491ccc8b528ab30265d9127f388bdac64736f6c63430007060033",
  "linkReferences": {},
  "deployedLinkReferences": {}
}